{
  "_format": "hh-sol-artifact-1",
  "contractName": "Demo",
  "sourceName": "contracts/Demo.sol",
  "abi": [
    {
      "inputs": [],
      "stateMutability": "nonpayable",
      "type": "constructor"
    },
    {
      "anonymous": false,
      "inputs": [
        {
          "indexed": false,
          "internalType": "bool",
          "name": "newState",
          "type": "bool"
        }
      ],
      "name": "StatusActive",
      "type": "event"
    },
    {
      "anonymous": false,
      "inputs": [
        {
          "indexed": false,
          "internalType": "bool",
          "name": "newState",
          "type": "bool"
        }
      ],
      "name": "StatusChanged",
      "type": "event"
    },
    {
      "inputs": [],
      "name": "getActive",
      "outputs": [
        {
          "internalType": "bool",
          "name": "",
          "type": "bool"
        }
      ],
      "stateMutability": "view",
      "type": "function"
    },
    {
      "inputs": [],
      "name": "isActive",
      "outputs": [
        {
          "internalType": "bool",
          "name": "",
          "type": "bool"
        }
      ],
      "stateMutability": "view",
      "type": "function"
    },
    {
      "inputs": [],
      "name": "perform",
      "outputs": [],
      "stateMutability": "nonpayable",
      "type": "function"
    },
    {
      "inputs": [],
      "name": "setAcitve",
      "outputs": [],
      "stateMutability": "nonpayable",
      "type": "function"
    }
  ],
  "bytecode": "0x608060405234801561001057600080fd5b5060008060006101000a81548160ff0219169083151502179055506101fa8061003a6000396000f3fe608060405234801561001057600080fd5b506004361061004b5760003560e01c80629ebb101461005057806322f3e2d41461006e578063970c4d1b1461008c578063b147f40c14610096575b600080fd5b6100586100a0565b60405161006591906101a9565b60405180910390f35b6100766100b6565b60405161008391906101a9565b60405180910390f35b6100946100c7565b005b61009e610134565b005b60008060009054906101000a900460ff16905090565b60008054906101000a900460ff1681565b60008054906101000a900460ff16156000806101000a81548160ff0219169083151502179055507f4dcbe1841ee9bd9c888e46c0b35574429b1c0f1071806180028dee2f9a10643060008054906101000a900460ff1660405161012a91906101a9565b60405180910390a1565b60008054906101000a900460ff161561018c577f85a323a1213d84c9536585dc4f9ec125846f85be60b5d568bc9a7627a36944f560008054906101000a900460ff1660405161018391906101a9565b60405180910390a15b565b60008115159050919050565b6101a38161018e565b82525050565b60006020820190506101be600083018461019a565b9291505056fea26469706673582212207a61b8247fe02e6ec8110529c4b8bbf392ab1b60a0365a07f96e1ff5624f405a64736f6c63430008110033",
  "linkReferences": {},
  "deployedLinkReferences": {}
}